:060000000A128A11FC2C1B
:1009F80083010A128A11152F83120313AD01AB1F4D
:100A0800062D072D102DAA09AB09AA0A0319AB0A4E
:100A1800AD010314AD0D102D2A08F0002B08F100CC
:100A2800F2018E30FC007C08F3002D08FD007D08E3
:100A3800F4000A128A112C250A128A1170088312EE
:100A48000313AA007108AB007208AC002B2D080034
:100A58007308031D302D382D720871047004031DAE
:100A6800362D372D4E2D382D0030F0000030F10096
:100A78000030F200A62DA62D4E2D0130F500750888
:100A8800F30701300310F20CF10CF00CFF3E031DCC
:100A9800462D4E2DFE307205031D532D542D412D2C
:100AA8006C2D6C2D0130F5007508F3070130F00747
:100AB800003003180130F107003003180130F20745
:100AC80001300310F20CF10CF00CFF3E031D652DF4
:100AD800FF307205031D712D722D562D7F2D7F2D30
:100AE8000130F30201300310F00DF10DF20DFF3E5D
:100AF800031D772D7F2DF11F822D832D742D7318E3
:100B0800862D872D8D2DFF30F0057F30F105FF30C4
:100B1800F2050310F30C7308F500F601F701103025
:100B28000310F50DF60DF70DFF3E031D942D750806
:100B3800F0047608F1047708F2047408031DA52D63
:100B4800A62DF2170800780883120313A00079086D
:100B5800A1007A08A2000310210D220DA30023088A
:100B6800A900A908031DB92DBA2DC42D0030FB001A
:100B78000030FA000030F9000030F8004C2E4C2EFE
:100B88007808A0007908A1007A08A200173003109D
:100B9800A20CA10CA00CFF3E031DCB2D2008A30026
:100BA8002308A400F917FF30F805FF30F9050030D5
:100BB800FA057808A5007908A6007A08A700A80110
:100BC8008E30A902A91FE92DEA2D0F2E2908803A97
:100BD8008F3E0318F02DF12DFC2D0030FB00003066
:100BE800FA000030F9000030F8004C2E4C2EFC2D95
:100BF80001300310A80CA70CA60CA50CFF3E031D82
:100C0800FD2D0130A0002008A907031D0C2E0D2E74
:100C1800FC2D332E332E18302902031C142E152ECA
:100C28002C2E0030FB000030FA000030F9000030B4
:100C3800F8004C2E4C2E2C2E0130A0000310A50DD0
:100C4800A60DA70DA80DA00B222E0130A9022C2E4F
:100C5800A908031D302E312E202E332E332E2408C2
:100C6800031D372E432EA509A609A709A809A50A19
:100C78000319A60A0319A70A0319A80A432E280864
:100C8800FB002708FA002608F9002508F8004C2E72
:100C98000800831203133108B4003208B500330882
:100CA800B6000310350D360DB7003708BC00BC0878
:100CB800031D5F2E602E682E0030AE000030AF009E
:100CC8000030B000142F142F2E08B4002F08B500E0
:100CD8003008B6000310350D360DB7003708BD00D3
:100CE800BD08031D782E792E812E0030AE0000300D
:100CF800AF000030B000142F142F0030B9000030BE
:100D0800BA000030BB0089303D07B4003408BC028B
:100D18003108B4003208B5003308B60010300310AB
:100D2800B60CB50CB40CFF3E031D932E3408B70067
:100D38003708BD002E08B4002F08B5003008B600EB
:100D480010300310B60CB50CB40CFF3E031DA52ED5
:100D58003408B7003708BD068030B4003408BD0534
:100D6800B217FF30B105FF30B2050030B305AF1739
:100D7800FF30AE05FF30AF050030B0051830B400C5
:100D88003408B800C72E01300310B90DBA0DBB0DD9
:100D9800FF3E031DC82E30083302031DD92E2F082D
:100DA8003202031DD92E2E083102031CDC2EDD2E43
:100DB800E92E2E08B1022F08031C2F0FB2023008AB
:100DC800031C300AB3023914E92E01300310B10DA7
:100DD800B20DB30DFF3E031DEA2E0130B802031D0C
:100DE800F62EF72EC72EF82E3908F0003A08F10033
:100DF8003B08F2003C08B4003408F3003D08B50095
:100E08003508F4000A128A112C250A128A11700872
:100E180083120313AE007108AF007208B000142FDC
:100E28000800831603138701831203138701103008
:100E38008316031386001030831203139000831265
:100E480003138F018E0106140330BE00BE0B2A2F38
:100E5800831203130610302F061E332F342F302F22
:100E68001014362F061A392F3A2F362F10100F0864
:100E7800BE00BF013E08BF00BE013E080E04C1000F
:100E88003F08C2004208AB01AB074108AA01AA0704
:100E98000A128A1100250A128A11831203132A08DA
:100EA800B1002B08B2002C08B3004830AE00EB307C
:100EB800AF004130B0000A128A114D260A128A1179
:100EC800831203132E08F8002F08F9003008FA00DF
:100ED8000A128A11A7250A128A11790883120313A4
:100EE800C201C2077808C101C1074108013EC1001B
:100EF80042080318013E003EC2004208803AFF0043
:100F080080307F02031D8A2F02304102031C8D2F7F
:100F18008E2FA22F831203134208803AFF008030DD
:100F28007F02031D992F0B30410203189C2F9D2F20
:100F3800A22F0130831203138700EE2F83120313AD
:100F48004208803AFF0080307F02031DAD2F0B302E
:100F58004102031CB02FB12FC52F8312031342087F
:100F6800803AFF0080307F02031DBC2F15304102FC
:100F78000318BF2FC02FC52F033083120313870018
:100F8800EE2F831203134208803AFF0080307F025D
:100F9800031DD02F15304102031CD32FD42FE82F67
:100FA800831203134208803AFF0080307F02031D3A
:100FB800DF2F1F3041020318E22FE32FE82F0730FD
:100FC800831203138700EE2F831203138701EE2F7A
:100FD800EE2FEE2F0330C0000630BF007730BE0082
:100FE800BE0BF42FBF0BF42FC00BF42F6400232F7C
:080FF800232F0A128A110028C0
:02400E00393F38
:00000001FF
