:060000000A128A110E2C09
:10081C0083010A128A11972E83120313AF01AB1FA7
:10082C00182C192C222CAA09AB09AA0A0319AB0AF9
:10083C00AF010314AF0D222C2A08F0002B08F10095
:10084C00F2018E30AD002D08F3002F08AE002E08FB
:10085C00F4000A128A11AE240A128A11700883124B
:10086C000313AA007108AB007208AC003D2C080001
:10087C00FA1F412C422C6A2C003083120313A00067
:10088C000030A1008030A2007809A3007909A400EF
:10089C007A09A500A30A0319A40A0319A50A2308B7
:1008AC00A00724080318240F5C2C5D2CA107250835
:1008BC000318250F622C632CA2072008F8002108CE
:1008CC00F9002208FA006A2CFD1F6D2C6E2C962C58
:1008DC00003083120313A0000030A1008030A2006E
:1008EC007B09A3007C09A4007D09A500A30A0319B8
:1008FC00A40A0319A50A2308A00724080318240F27
:10090C00882C892CA10725080318250F8E2C8F2CD9
:10091C00A2072008FB002108FC002208FD00962CF1
:10092C008030FA068030FD067D087A02031DA42C67
:10093C007C087902031DA42C7B0878020318A72CD1
:10094C00A82CAA2C0310AD2C0314AD2CAD2C080034
:10095C007308031DB22CBA2C720871047004031DA9
:10096C00B82CB92CD02CBA2C0030F0000030F1008F
:10097C000030F200282D282DD02C0130F500750800
:10098C00F30701300310F20CF10CF00CFF3E031DC9
:10099C00C82CD02CFE307205031DD52CD62CC32CA4
:1009AC00EE2CEE2C0130F5007508F3070130F00742
:1009BC00003003180130F107003003180130F20742
:1009CC0001300310F20CF10CF00CFF3E031DE72C70
:1009DC00FF307205031DF32CF42CD82C012D012DA6
:1009EC000130F30201300310F00DF10DF20DFF3E5A
:1009FC00031DF92C012DF11F042D052DF62C731858
:100A0C00082D092D0F2DFF30F0057F30F105FF303B
:100A1C00F2050310F30C7308F500F601F701103022
:100A2C000310F50DF60DF70DFF3E031D162D750881
:100A3C00F0047608F1047708F2047408031D272DDE
:100A4C00282DF2170800780883120313A0007908E8
:100A5C00A1007A08A2000310210D220DA300230887
:100A6C00A900A908031D3B2D3C2D462D0030FB0091
:100A7C000030FA000030F9000030F800CE2DCE2DF9
:100A8C007808A0007908A1007A08A200173003109A
:100A9C00A20CA10CA00CFF3E031D4D2D2008A300A1
:100AAC002308A400F917FF30F805FF30F9050030D2
:100ABC00FA057808A5007908A6007A08A700A8010D
:100ACC008E30A902A91F6B2D6C2D912D2908803A0F
:100ADC008F3E0318722D732D7E2D0030FB000030DD
:100AEC00FA000030F9000030F800CE2DCE2D7E2D0E
:100AFC0001300310A80CA70CA60CA50CFF3E031D7F
:100B0C007F2D0130A0002008A907031D8E2D8F2DED
:100B1C007E2DB52DB52D18302902031C962D972D41
:100B2C00AE2D0030FB000030FA000030F900003030
:100B3C00F800CE2DCE2DAE2D0130A0000310A50D4A
:100B4C00A60DA70DA80DA00BA42D0130A902AE2D4A
:100B5C00A908031DB22DB32DA22DB52DB52D24083A
:100B6C00031DB92DC52DA509A609A709A809A50A14
:100B7C000319A60A0319A70A0319A80AC52D2808E0
:100B8C00FB002708FA002608F9002508F800CE2DEE
:100B9C000800831203133308B6003408B700350875
:100BAC00B8000310370D380DB9003908BE00BE0867
:100BBC00031DE12DE22DEA2D0030B0000030B10014
:100BCC000030B200962E962E3008B6003108B700D1
:100BDC003208B8000310370D380DB9003908BF00C2
:100BEC00BF08031DFA2DFB2D032E0030B000003082
:100BFC00B1000030B200962E962E0030BB000030B3
:100C0C00BC000030BD0089303F07B6003608BE027C
:100C1C003308B6003408B7003508B800103003109C
:100C2C00B80CB70CB60CFF3E031D152E3608B900D8
:100C3C003908BF003008B6003108B7003208B800D8
:100C4C0010300310B80CB70CB60CFF3E031D272E4A
:100C5C003608B9003908BF068030B6003608BF0523
:100C6C00B417FF30B305FF30B4050030B505B1172C
:100C7C00FF30B005FF30B1050030B2051830B600BA
:100C8C003608BA00492E01300310BB0DBC0DBD0D4A
:100C9C00FF3E031D4A2E32083502031D5B2E310820
:100CAC003402031D5B2E30083302031C5E2E5F2EB4
:100CBC006B2E3008B3023108031C310FB40232081A
:100CCC00031C320AB5023B146B2E01300310B30D1A
:100CDC00B40DB50DFF3E031D6C2E0130BA02031D81
:100CEC00782E792E492E7A2E3B08F0003C08F10024
:100CFC003D08F2003E08B6003608F3003F08B70086
:100D0C003708F4000A128A11AE240A128A117008EC
:100D1C0083120313B0007108B1007208B200962E52
:100D2C000800831603138701831203138701103005
:100D3C00831603138600831203139001A52E8312CE
:100D4C0003138F018E0106140330C000C00BAC2EB0
:100D5C00831203130610B22E061EB52EB62EB22E1B
:100D6C001014B82E061ABB2EBC2EB82E10100F085D
:100D7C00C000C1014008C100C00140080E04C300FE
:100D8C004108C4004408AB01AB074308AA01AA07F9
:100D9C000A128A1112240A128A11831203132A08C6
:100DAC00B3002B08B4002C08B5004830B000EB3071
:100DBC00B1004130B2000A128A11CF250A128A11F1
:100DCC00831203133008F8003108F9003208FA00D6
:100DDC000A128A1129250A128A117908831203131F
:100DEC00C401C4077808C301C3074308013EC3000C
:100DFC0044080318013E003EC4004408AB01AB0795
:100E0C004308AA01AA070A128A1112240A128A118B
:100E1C00831203132A08F8002B08F9002C08FA0097
:100E2C000030FB000030FC004030FD000A128A113B
:100E3C003E240A128A11031C242F252F4E2F00301A
:100E4C00F8002030F9004130FA00831203134408F3
:100E5C00AB01AB074308AA01AA070A128A11122494
:100E6C000A128A11831203132A08FB002B08FC00B8
:100E7C002C08FD000A128A113E240A128A11031C46
:100E8C00482F492F4E2F0130831203138700EE2F6A
:100E9C00831203134408AB01AB074308AA01AA074A
:100EAC000A128A1112240A128A11831203132A08B5
:100EBC00F8002B08F9002C08FA009A30FB002130BE
:100ECC00FC004130FD000A128A113E240A128A11DC
:100EDC00031C712F722F9B2F0030F800A030F900EB
:100EEC004130FA00831203134408AB01AB074308EB
:100EFC00AA01AA070A128A1112240A128A11831251
:100F0C0003132A08FB002B08FC002C08FD000A1216
:100F1C008A113E240A128A11031C952F962F9B2F9F
:100F2C000330831203138700EE2F8312031344083C
:100F3C00AB01AB074308AA01AA070A128A111224B3
:100F4C000A128A11831203132A08F8002B08F900DD
:100F5C002C08FA00CD30FB00A030FC004130FD0025
:100F6C000A128A113E240A128A11031CBE2FBF2FAB
:100F7C00E82F0030F800F030F9004130FA0083120D
:100F8C0003134408AB01AB074308AA01AA070A12D2
:100F9C008A1112240A128A11831203132A08FB00E5
:100FAC002B08FC002C08FD000A128A113E240A12A0
:100FBC008A11031CE22FE32FE82F0730831203134F
:100FCC008700EE2F831203138701EE2FEE2FEE2FE7
:100FDC000330C2000630C1007730C000C00BF42FC4
:100FEC00C10BF42FC20BF42F6400A52EA52E0A12F0
:040FFC008A1100282E
:02400E00393F38
:00000001FF
