:060000000A128A112A2EEB
:100C540083010A128A11A22EF601F11F322E332EBD
:100C64003C2EF009F109F00A0319F10AF601031404
:100C7400F60D3C2EF31F3F2E402E4A2EF209F309A7
:100C8400F20A0319F30A0130F4007408F6064A2E36
:100C9400F701F801710870040319512E522E902E99
:100CA400F5010314F50D622E01300310F00DF10D62
:100CB400FF3E031D572E0130F4007408F507622E21
:100CC400F11F652E662E562E682E682E01300310F5
:100CD400F70DF80DFF3E031D692E71087302031D05
:100CE400752E70087202031C782E792E812E7008DE
:100CF400F2027108031CF303F3027714812E01300E
:100D04000310F10CF00CFF3E031D822E0130F5029E
:100D1400031D8D2E8E2E682E902E902E7608031D88
:100D2400942E9A2EF709F809F70A0319F80A9A2E4D
:100D34007808F101F1077708F001F007A12E080007
:100D440083160313870110308600103083120313B7
:100D54009000831203138F018E01870101308600F6
:100D64000330F900F90BB42E831203138601BC2E51
:100D7400013090000608031DC02EBA2EC42EC42EC6
:100D84009001C42E0608083A0319C92ECA2EC22E91
:100D9400CB2E0F08F900FA017908FA00F901790855
:100DA4000E04FC007A08FD003A30F0000030F10037
:100DB4007D08F301F3077C08F201F2070A128A1195
:100DC4002E260A128A117108FD01FD077008FC0124
:100DD400FC077D08803AFF0080307F02031DF42E5B
:100DE40002307C02031CF72EF82E0A2F7D08803A6D
:100DF400FF0080307F02031D012F33307C02031873
:100E0400042F052F0A2F0130831203138700EE2FBE
:100E14007D08803AFF0080307F02031D132F33309A
:100E24007C02031C162F172F292F7D08803AFF0000
:100E340080307F02031D202F65307C020318232F8E
:100E4400242F292F0230831203138700EE2F7D08ED
:100E5400803AFF0080307F02031D322F65307C0210
:100E6400031C352F362F482F7D08803AFF00803031
:100E74007F02031D3F2F97307C020318422F432F1C
:100E8400482F0430831203138700EE2F7D08803A25
:100E9400FF0080307F02031D512F97307C02031C1A
:100EA400542F552F672F7D08803AFF0080307F0232
:100EB400031D5E2FC9307C020318612F622F672F38
:100EC4000830831203138700EE2F7D08803AFF0059
:100ED40080307F02031D702FC9307C02031C732FE6
:100EE400742F862F7D08803AFF0080307F02031D17
:100EF4007D2FFB307C020318802F812F862F10302A
:100F0400831203138700EE2F7D08803AFF008030A0
:100F14007F02031D8F2FFB307C02031C922F932F23
:100F2400A52F7D08803AFF0081307F02031D9C2F8E
:100F34002D307C0203189F2FA02FA52F2030831261
:100F440003138700EE2F7D08803AFF0081307F0273
:100F5400031DAE2F2D307C02031CB12FB22FC42FE2
:100F64007D08803AFF0081307F02031DBB2F5F3074
:100F74007C020318BE2FBF2FC42F403083120313EB
:100F84008700EE2F7D08803AFF0081307F02031D29
:100F9400CD2F5F307C02031CD02FD12FE32F7D088F
:100FA400803AFF0081307F02031DDA2F91307C02EA
:100FB4000318DD2FDE2FE32F803083120313870005
:100FC400EE2F831203138701EE2FEE2FEE2FEE2F59
:100FD400EE2FEE2FEE2FEE2F0330FB000630FA003B
:100FE4007730F900F90BF42FFA0BF42FFB0BF42FE5
:0C0FF4006400AB2EAB2E0A128A110028FC
:02400E00393F38
:00000001FF
